:020000040800F2
:1000000000000524B98300088D8000089580000851
:100010009D800008A5800008AD8000080000000059
:10002000000000000000000000000000B580000893
:10003000C380000800000000D1800008DF800008B5
:10004000098400080984000809840008098400085C
:100050000984000809840008EB800008098400086E
:10006000098400080984000809840008F980000850
:10007000098400080984000809840008098400082C
:1000800009840008098400080D810008098400081B
:1000900021810008098400080984000809840008F7
:1000A00009840008098400080984000809840008FC
:1000B00009840008098400080984000809840008EC
:1000C00009840008098400080984000809840008DC
:1000D0000984000809840008E179000809840008FF
:1000E0003581000809840008000000000984000828
:1000F00009840008098400080984000809840008AC
:10010000098400080984000809840008098400089B
:1001100009840008098400084D81000861810008F5
:10012000098400080984000809840008098400087B
:10013000098400080984000809840008098400086B
:1001400000000000000000000000000000000000AF
:10015000098400080984000809840008098400084B
:10016000098400080984000809840008098400083B
:1001700009840008098400080984000800000000C0
:10018000098400080984000809840008098400081B
:10019000098400080984000809840008098400080B
:1001A0000984000809840008098400080000000090
:1001B00009840008098400080984000809840008EB
:1001C0000984000809840008000000000000000005
:1001D000000000000000000009840008000000008A
:1001E000000000000000000000000000000000000F
:1001F00000000000000000000984000809840008D5
:10020000098400080984000800000000098400082F
:10021000098400080984000809840008098400088A
:1002200009840008000000000984000800000000A4
:1002300009840008098400080000000009840008FF
:10024000098400080984000809840008098400085A
:10025000098400080984000809840008098400084A
:10026000098400080984000809840008098400083A
:1002700009840008098400080984000800000000BF
:10028000098400080984000809840008098400081A
:100290000000000009840008098400080000000034
:1002A000000000000984000809840008098400088F
:1002B00009840008098400080984000809840008EA
:0C02C00009840008098400080984000873
:1002D00010B5054C237833B9044B13B10448AFF380
:1002E00000800123237010BD600A0024000000007C
:1002F00044CE010808B5034B1BB103490348AFF3D3
:10030000008008BD00000000640A002444CE0108FB
:1003100001F0FF01102A2BDB10F0070F08D010F8B6
:10032000013B013A8B422DD010F0070F42B3F6D1BA
:10033000F0B441EA012141EA014122F007047FF0D3
:1003400000070023F0E80256083C85EA010586EA2A
:10035000010685FA47F5A3FA87F586FA47F6A5FA66
:1003600087F68EB9EED1F0BC01F0FF0102F0070272
:1003700032B110F8013B013A83EA010313B1F8D11D
:100380000020704701387047002D06BF35460338FE
:10039000073815F0010F07D1013015F4807F02BF37
:1003A000013015F4C03F0130F0BC0138704700BF88
:1003B000034613F8012B002AFBD1181A01387047A5
:1003C00053B94AB9002908BF00281CBF4FF0FF31BC
:1003D0004FF0FF3000F06AB9ADF1080C6DE904CEC2
:1003E00000F006F8DDF804E0DDE9022304B0704710
:1003F0002DE9F047089D0C46002B4ED194468C45C4
:100400008646B2FA82F262D94AB1C2F12003914023
:1004100020FA03F30CFA02FC194300FA02FE4FEA39
:100420001C471FFA8CF6B1FBF7F44FEA1E4307FB9B
:10043000141143EA014304FB06F199420AD91CEB6B
:10044000030304F1FF3080F01281994240F20F81E2
:10045000023C6344591A1FFA8EF3B1FBF7F007FB15
:10046000101143EA014300FB06F69E420AD91CEB39
:10047000030300F1FF3180F0FC809E4240F2F980DE
:10048000634402389B1B40EA044000211DB1D34065
:100490000022C5E90032BDE8F0878B4205D90DB1D5
:1004A000C5E9000100210846F5E7B3FA83F1002908
:1004B00046D1A34202D39042C0F0F080861A64EB8A
:1004C00003030120002DE6D0C5E90063E3E7002A1D
:1004D00040F09080A1EB0C044FEA1C481FFA8CF707
:1004E0000121B4FBF8F64FEA1E4308FB164443EA29
:1004F000044307FB06F0984208D91CEB030306F1FE
:10050000FF3402D2984200F2CD8026461C1A1FFA10
:100510008EF3B4FBF8F008FB104443EA044300FBFD
:1005200007F79F4208D91CEB030300F1FF3402D206
:100530009F4200F2B0802046DB1B40EA0640A5E760
:10054000C1F120068B4022FA06F71F4320FA06FC71
:1005500004FA01F343EA0C03F44000FA01F8380C02
:100560004FEA1349B4FBF0FE1FFA87FC00FB1E4460
:1005700049EA04440EFB0CF9A14502FA01F20AD93A
:100580003C190EF1FF3A80F08480A14540F2818051
:10059000AEF1020E3C44A4EB09041FFA83F9B4FB4C
:1005A000F0F300FB134449EA044403FB0CFCA445AC
:1005B00007D93C1903F1FF3067D2A44565D9023B46
:1005C0003C4443EA0E40A0FB0293A4EB0C049C4283
:1005D000CE469C4651D34ED055B1B8EB0E0364EBDA
:1005E0000C0404FA06F6CB401E43CC40C5E9006477
:1005F000002150E7C2F1200320FA03F10CFA02FCBB
:1006000024FA03F394400C434FEA1C4800FA02FE1C
:100610001FFA8CF7B3FBF8F008FB1031230C43EA08
:10062000014300FB07F1994208D91CEB030300F1D9
:10063000FF362CD299422AD9023863445B1AA4B2FD
:10064000B3FBF8F108FB113344EA034401FB07F361
:10065000A34208D91CEB040401F1FF3613D2A342D4
:1006600011D902396444E41A41EA004139E70446E9
:10067000F0E6084606E7C845AED2B9EB020E63EBDA
:10068000070C0138A8E73146EDE7034699E7304605
:10069000D4E7D6467FE7634402384DE70646234653
:1006A00008460FE7023E634430E700BF704700BFD3
:1006B00080B582B000AF00237B60194B194A1A60E5
:1006C000194B1B685A1C18490A60002B22D1144888
:1006D00011F052FA0346002B1CD1114800F0FEF82D
:1006E0007B68002B16D10E4800F0B4F80346002BAF
:1006F00003D06FF007037B600CE00021084811F085
:1007000017FD0346002B03D06FF007037B6001E069
:1007100000237B607B6818460837BD4680BD00BF5C
:100720007C0A0024001C0058D00A002480B582B046
:1007300000AF00237B600F4B1B68002B14D00D4BC8
:100740001B68013B0B4A13600A4B1B68002B0BD143
:10075000094800F02FF9084810F09CFF0346002BD1
:1007600002D06FF007037B607B6818460837BD46F0
:1007700080BD00BFD00A00247C0A002480B58AB066
:1007800004AFBA601A460346FB810B46BB81134691
:10079000FB8000237B61BA89F9894FF4805302936F
:1007A000FB880193BB68009301230C4810F0B6FF4F
:1007B0000346002B0CD0094811F0ECF90346042B3A
:1007C00003D16FF065037B6102E06FF003037B618F
:1007D0007B6918461837BD4680BD00BF7C0A0024DF
:1007E00080B58AB004AFBA601A460346FB810B4657
:1007F000BB811346FB8000237B61BA89F9894FF4E2
:1008000080530293FB880193BB68009301230C483B
:1008100011F098F80346002B0CD0094811F0BAF9F2
:100820000346042B03D16FF065037B6102E06FF098
:1008300003037B617B6918461837BD4680BD00BF46
:100840007C0A002480B500AF09F002FA034618467E
:1008500080BD000080B584B000AF78600023FB73DA
:100860007B681C4A1A607B681B4A5A607B680022BE
:100870009A607B680122DA607B6800221A617B68DB
:1008800000225A617B6800229A617B680022DA614B
:100890007B6800221A62786810F060FE0346002B25
:1008A00001D00123FB730021786811F041FC03465D
:1008B000002B01D00123FB730021786811F083FC29
:1008C0000346002B01D00123FB73FB7B1846103736
:1008D000BD4680BD001C0058724E406080B5B8B067
:1008E00000AF786007F11003B822002118461AF013
:1008F000ADF84FF010024FF00003C7E904230023C6
:10090000C7F8A43007F11003184612F0E9FD274B91
:10091000D3F8E030254A43F00803C2F8E030234B17
:10092000D3F8E03003F00803FB60FB684FF480531A
:10093000C7F8CC301223C7F8D0300023C7F8D43022
:100940000023C7F8D8300423C7F8DC3007F1CC0304
:100950001946174810F0F2FA4FF40053C7F8CC309C
:100960001223C7F8D0300023C7F8D4300023C7F8CB
:10097000D8300423C7F8DC3007F1CC0319460C4803
:1009800010F0DCFA094BD3F8F430084A43F0800346
:10099000C2F8F430054BD3F8F43003F08003BB60A9
:1009A000BB6800BFE037BD4680BD00BF00440258B1
:1009B000000C025880B582B000AF78600A4BD3F8C3
:1009C000F430094A23F08003C2F8F4304FF4805128
:1009D000064810F05BFC4FF40051044810F056FC40
:1009E00000BF0837BD4680BD00440258000C0258C5
:1009F00080B483B000AF78604FF06043D3F8803E9E
:100A000003F00103002B13D04FF06043D3F8003EF6
:100A100003F00103002B0BD000E000BF4FF0604358
:100A20001B68002BF9D04FF060437A68D2B21A707D
:100A30007B6818460C37BD465DF8047B70470000A4
:100A4000B0B582B000AF0346FB71FB79232B0AD10E
:100A50001D4B00221A70202200211C4819F0F6FFBD
:100A60001B4B00221A601A4B1B68002B0AD0184B34
:100A70001B68002B10DD164B1B68013B134AD35C2F
:100A80000A2B09D0124B1B681049FA79CA54104B33
:100A90001B6801330E4A1360FB790D2B02D0FB79E2
:100AA0000A2B0CD10B4A094B14461D460FCD0FC41F
:100AB00095E80F0084E80F00034B01221A7000BF75
:100AC0000837BD46B0BD00BFB80B0024C00B0024E2
:100AD000BC0B0024700B002480B58CB000AF786094
:100AE0009A4B02221A607B6801331B78522B0FD17C
:100AF0007B6802331B78752B0AD17B6803331B7824
:100B00006E2B05D1924B01221A70924B00221A6073
:100B10007B6801331B78532B11D17B6802331B7820
:100B2000742B0CD17B6803331B786F2B07D17B6848
:100B300004331B78702B02D1854B00221A707B681E
:100B400001331B78732B11D17B6802331B78742B14
:100B50000CD17B6803331B78612B07D17E4802F0F0
:100B600035F905F077FF7D4B01221A707B68013360
:100B70001B78412B28D17B6803331B7819467848B2
:100B800019F0FCFD7B6803331B78302B0DD17B689B
:100B900004331B78302B08D17B6805331B78302B4E
:100BA00003D1704B00221A700EE06E4B01221A70B6
:100BB0007868FFF7FDFB03461946786800F062FA93
:100BC00003465B01684A13607B6801331B78432B43
:100BD00040F0ED806549786819F050FFF862F86AD6
:100BE00019F034FE6249002019F048FFF862F86AF3
:100BF00019F044F8B8625E49002019F03FFFF8622E
:100C0000F86A19F03BF878625949002019F036FF6C
:100C1000F862F86A19F032F838625549002019F084
:100C20002DFFF862F86A19F029F8F86150490020A0
:100C300019F024FFF862BB6A082B42D13B6A013BE2
:100C4000072B3DD801A252F823F000BF6D0C00081D
:100C5000790C0008850C0008C10C0008910C0008F4
:100C60009D0C0008A90C0008B50C000841497B6ADE
:100C7000FA6941F8232024E03F497B6AFA6941F888
:100C800023201EE03D497B6AFA6941F8232018E0E1
:100C90003B497B6AFA6941F8232012E039497B6AB3
:100CA000FA6941F823200CE037497B6AFA6941F878
:100CB000232006E035497B6AFA6941F8232000E0E9
:100CC00000BFBB6A092B72D13B6A013B072B6DD871
:100CD00001A252F823F000BFF90C0008050D00082E
:100CE000110D0008AD0D00081D0D0008290D0008AC
:100CF000350D0008410D000825497B6AFA6941F865
:100D0000232054E023497B6AFA6941F823204EE00E
:100D100021497B6AFA6941F8232048E01F497B6A30
:100D2000FA6941F8232042E01D497B6AFA6941F8DB
:100D300023203CE01B497B6AFA6941F8232036E016
:100D400019497B6AFA6941F8232030E0E00B00245E
:100D50006D0B0024D80A002460CE0108EB0B0024A0
:100D600074CE0108DC0A00240000002484CE0108AF
:100D700088CE01086C0000248C000024AC00002404
:100D8000CC000024EC0000240C0100242C010024E1
:100D90006C0100248C010024AC010024CC0100244F
:100DA000EC0100240C0200242C02002400BF7B680C
:100DB00001331B78422B40F08C803A49786819F057
:100DC0005DFEB861B86919F041FD3749002019F09E
:100DD00055FEB861B86918F051FF786132490020BA
:100DE00019F04CFEB861B86918F048FF38612E4917
:100DF000002019F043FEB861B86918F03FFFF860B1
:100E00002949002019F03AFEB861B86918F036FF98
:100E1000B8602549002019F031FEB8617B69013BBB
:100E2000062B56D801A252F823F000BF490E000845
:100E30005B0E00086D0E0008D30E00087F0E000840
:100E4000910E0008C10E00081849FB68DA003B69E2
:100E50001344BA6841F823203BE01549FB68DA00E7
:100E60003B691344BA6841F8232032E01149FB681A
:100E7000DA003B691344BA6841F8232029E00E499F
:100E8000FB68DA003B691344BA6841F8232020E08C
:100E90000A49FB68DA003B691344BA6841F8232029
:100EA00017E000BF84CE010888CE01086C02002440
:100EB0006C0300246C0400246C0500246C060024E0
:100EC0006549FB68DA003B691344BA6841F823209E
:100ED00000BF7B6801331B78622B0CD17B68023327
:100EE0001B783B2B07D17B6803331B78312B02D156
:100EF0005A4B01221A707B6801331B78622B0CD18C
:100F00007B6802331B783B2B07D17B6803331B784C
:100F1000322B02D1524B01221A707B6801331B78AD
:100F2000622B0CD17B6802331B783B2B07D17B688B
:100F300003331B78332B02D14A4B01221A707B6892
:100F400001331B78622B0CD17B6802331B783B2B5F
:100F500007D17B6803331B78342B02D1424B01222B
:100F60001A707B6801331B78622B0CD17B680233CB
:100F70001B783B2B07D17B6803331B78352B02D1C1
:100F80003A4B01221A707B6801331B78622B0CD11B
:100F90007B6802331B783B2B07D17B6803331B78BC
:100FA000362B02D1324B01221A707B6801331B7839
:100FB000622B0CD17B6802331B783B2B07D17B68FB
:100FC00003331B78372B02D12A4B01221A707B681E
:100FD00001331B78622B0CD17B6802331B783B2BCF
:100FE00007D17B6803331B78382B02D1224B0122B7
:100FF0001A707B6801331B78412B11D17B68023357
:101000001B78542B0CD17B6803331B783B2B07D107
:101010007B6804331B78502B02D1184B01221A70C5
:101020007B6801331B78412B11D17B6802331B781D
:10103000542B0CD17B6803331B783B2B07D17B6887
:1010400004331B784E2B02D10D4B01221A7000BFC6
:101050003037BD4680BD00BF6C070024FE0D002464
:10106000000E0024020E0024040E0024060E0024AC
:10107000080E00240A0E00240C0E00240E0E00247C
:101080000F0E002480B588B000AF7860396003236C
:10109000FB611FE0FB697A6813441B780D2B05D1B7
:1010A000FB697A6813441B780A2B09D0FB697A68BC
:1010B0001A44FB69033B127820333B4403F8182C95
:1010C000FB69023B20333B44002203F8182CFB69E8
:1010D0000133FB613B68013BFA699A42DADB07F1B5
:1010E0000803184618F0CAFDB861BB6918462037D6
:1010F000BD4680BDF0B5C5B016AFF864A44B1B78F3
:10110000002B01F04C86A34B1B78012B0ED1A2487B
:10111000FFF74EF903469AB2C8239F499F4816F03D
:10112000A5F89C4B00221A7001F040BEFB6C013BFD
:10113000052B01F2368601A252F823F05511000862
:1011400009120008DD120008F5130008F11D00085F
:101150003B2D0008924B5B789C46914B1B7A9E4638
:101160008F4B1B7919468E4BDB791C468C4B9B7938
:101170001D468B4B5B791E46894BDB78BB64884BE5
:101180001B787B64874B1B68D3ED027AB7EEE77A56
:10119000844B1B68D3ED036AB7EEE66A814B1B688C
:1011A000D3ED055AB7EEE55A7E4B1B681B8B3B64AB
:1011B0007D4B1B785B017D4A134407F150000D9372
:1011C0003A6C0C928DED0A5B8DED086B8DED067B14
:1011D0007A6C0592BB6C049303960295019400917E
:1011E00073466246724919F039FB07F150031846FD
:1011F000FFF7DEF803469AB207F15001642367480F
:1012000016F034F801F0D2BD6A4BD3ED007AB7EE98
:10121000E72A684BD3ED017AB7EEE77A654BD3ED59
:10122000026AB7EEE66A634BD3ED045AB7EEE55AAD
:10123000604BD3ED054AB7EEE44A5F4BD3ED003A7D
:10124000B7EEE33A5D4B1B68BB645D4A12685D49CB
:1012500009685D4800685D4C24685D4D2D685D4EF1
:1012600036685D4B93F800C0C7F844C0514BDB684B
:101270003B645A4B1B68FB63594B1B6807F1500CCE
:101280001493FB6B13933B6C12937B6C119310962E
:101290000F950E940D900C910B92BB6C0A938DEDF3
:1012A000083B8DED064B8DED045B8DED026B8DEDF6
:1012B000007B53EC122B4B49604619F0CFFA07F133
:1012C00050031846FFF774F803469AB207F150012D
:1012D0006423324815F0CAFF01F068BD002387F887
:1012E000B730022387F8B6303F4B5B78DBB29C46C1
:1012F0003D4B9B78DBB29E463B4B1B7ADBB21946DB
:10130000394B1B79DBB21C46374B9B79DBB21D4650
:10131000354BDB78DBB21E46344B9B78BB64334BDA
:101320005B787B64314B5B793B642F4BDB79DBB2C1
:10133000FB632D4B5B7ADBB2BB6397F8B73097F852
:10134000B62007F150000A920993BA6B0892FA6B23
:1013500007923A6C06927A6C0592BB6C04930396E2
:1013600002950194009173466246214919F076FA7C
:1013700007F150031846FFF71BF803469AB207F12E
:1013800050016423054815F071FF01F00FBD00BF47
:101390006D0B00246C0B00241C0B0024341500245E
:1013A000300C0024F40B00247810002414DB010816
:1013B0008CCE0108640C0024E00A0024B010002444
:1013C000B4100024B8100024BC100024C010002465
:1013D000C4100024B00B002484080024C81000248A
:1013E000CC100024C8CE0108480C0024D0100024E2
:1013F00014CF01088A4B1B78012B40F08380894B66
:101400001B68BB64874B59687964864B986838645D
:10141000844BDC68FC63834B1E69BE63814B5A6955
:101420007A63804B996939637E4BDC69FC627E4B41
:101430001B68BB627C4B586878627B4B9C683C6243
:10144000794BDE68FE61784B1A69BA61764B59694F
:101450007961754B9C693C61734BDB69FB60734B35
:101460001868B860714B5C687C60704B9E686F4B0D
:10147000DD686E4B18696D4B59696C4B9A696B4B03
:10148000DB6907F150041593149213911290119592
:1014900010967D680F95B8680E90FB680D933D69B6
:1014A0000C9579690B91BA690A92FE6909963D6AB1
:1014B0000895786A0790BB6A0693FD6A0595396BB3
:1014C00004917A6B0392BE6B0296FD6B0195386CAA
:1014D00000907B6CBA6C5649204619F0BFF9504B0E
:1014E00000221A70534B01221A7007F1500318465C
:1014F000FEF75EFF03469AB207F1500164234E489F
:1015000015F0B4FE4D4B1B78012B40F08380454B0A
:101510001B6ABB64434B596A7964424B986A3864CE
:10152000404BDC6AFC633F4B1E6BBE633D4B5A6B0A
:101530007A633C4B996B39633A4BDC6BFC623A4BF8
:101540001B6ABB62384B586A7862374B9C6A3C62B4
:10155000354BDE6AFE61344B1A6BBA61324B596B04
:101560007961314B9C6B3C612F4BDB6BFB602F4BEC
:10157000186AB8602D4B5C6A7C602C4B9E6A2B4BC2
:10158000DD6A2A4B186B294B596B284B9A6B274BFA
:10159000DB6B07F15004159314921391129011957F
:1015A00010967D680F95B8680E90FB680D933D69A5
:1015B0000C9579690B91BA690A92FE6909963D6AA0
:1015C0000895786A0790BB6A0693FD6A0595396BA2
:1015D00004917A6B0392BE6B0296FD6B0195386C99
:1015E00000907B6CBA6C1649204619F037F9134B02
:1015F00000221A70134B01221A7007F1500318468B
:10160000FEF7D6FE03469AB207F1500164230A485A
:1016100015F02CFE0C4B1B78012B40F09A8015E046
:10162000FE0D00246C0200246C0300246C040024D2
:1016300048CF0108FF0D002434150024000E0024BB
:101640009CCF0108010E0024020E00248A4B1B6C63
:10165000BB64894B596C7964874B986C3864864BB2
:10166000DC6CFC63844B1E6DBE63834B5A6D7A63E6
:10167000814B996D3963804BDC6DFC627F4B1B6C39
:10168000BB627E4B586C78627C4B9C6C3C627B4BA3
:10169000DE6CFE61794B1A6DBA61784B596D7961D8
:1016A000764B9C6D3C61754BDB6DFB60744B186C2D
:1016B000B860734B5C6C7C60714B9E6C704BDD6CE6
:1016C0006F4B186D6E4B596D6D4B9A6D6C4BDB6D9E
:1016D00007F15004159314921391129011951096DE
:1016E0007D680F95B8680E90FB680D933D690C9569
:1016F00079690B91BA690A92FE6909963D6A089563
:10170000786A0790BB6A0693FD6A0595396B049168
:101710007A6B0392BE6B0296FD6B0195386C00905C
:101720007B6CBA6C5749204619F098F8564B00224A
:101730001A70564B01221A7007F150031846FEF733
:1017400037FE03469AB207F150016423504815F062
:101750008DFD504B1B78012B40F08380464B1B6E58
:10176000BB64454B596E7964434B986E3864424B69
:10177000DC6EFC63404B1E6FBE633F4B5A6F7A6357
:101780003D4B996F39633C4BDC6FFC623B4B1B6EEE
:10179000BB623A4B586E7862384B9C6E3C62374B5A
:1017A000DE6EFE61354B1A6FBA61344B596F796149
:1017B000324B9C6F3C61314BDB6FFB60304B186EE2
:1017C000B8602F4B5C6E7C602D4B9E6E2C4BDD6E9B
:1017D0002B4B186F2A4B596F294B9A6F284BDB6F95
:1017E00007F15004159314921391129011951096CD
:1017F0007D680F95B8680E90FB680D933D690C9558
:1018000079690B91BA690A92FE6909963D6A089551
:10181000786A0790BB6A0693FD6A0595396B049157
:101820007A6B0392BE6B0296FD6B0195386C00904B
:101830007B6CBA6C1849204619F010F8154B002241
:101840001A70164B01221A7007F150031846FEF762
:10185000AFFD03469AB207F1500164230C4815F01E
:1018600005FD0F4B1B78012B40F0B380024BD3F8E2
:101870008030BB6416E000BF6C0200246C030024BF
:101880006C040024F0CF0108020E0024030E002493
:1018900034150024040E002444D00108050E002451
:1018A000060E0024A24BD3F884107964A04BD3F821
:1018B000880038649E4BD3F88C40FC639C4BD3F873
:1018C0009060BE639A4BD3F894207A63984BD3F818
:1018D00098103963964BD3F89C40FC62954BD3F833
:1018E0008030BB62934BD3F884007862914BD3F87D
:1018F00088403C628F4BD3F88C60FE618D4BD3F8EF
:101900009020BA618B4BD3F894107961894BD3F84E
:1019100098403C61874BD3F89C30FB60864BD3F8F2
:101920008000B860844BD3F884407C60824BD3F84D
:101930008860814BD3F88C507F4BD3F890007E4B5E
:10194000D3F894107C4BD3F898207B4BD3F89C3081
:1019500007F150041593149213911290119510965B
:101960007D680F95B8680E90FB680D933D690C95E6
:1019700079690B91BA690A92FE6909963D6A0895E0
:10198000786A0790BB6A0693FD6A0595396B0491E6
:101990007A6B0392BE6B0296FD6B0195386C0090DA
:1019A0007B6CBA6C6549204618F058FF644B0022E6
:1019B0001A70644B01221A7007F150031846FEF7A3
:1019C000F7FC03469AB207F1500164235E4815F014
:1019D0004DFC5E4B1B78012B40F09B80544BD3F8A1
:1019E000A030BB64524BD3F8A4107964504BD3F8A9
:1019F000A80038644E4BD3F8AC40FC634C4BD3F892
:101A0000B060BE634A4BD3F8B4207A63484BD3F836
:101A1000B8103963464BD3F8BC40FC62454BD3F851
:101A2000A030BB62434BD3F8A4007862414BD3F89B
:101A3000A8403C623F4BD3F8AC60FE613D4BD3F80D
:101A4000B020BA613B4BD3F8B4107961394BD3F86D
:101A5000B8403C61374BD3F8BC30FB60364BD3F811
:101A6000A000B860344BD3F8A4407C60324BD3F86C
:101A7000A860314BD3F8AC502F4BD3F8B0002E4BAD
:101A8000D3F8B4102C4BD3F8B8202B4BD3F8BC3080
:101A900007F150041593149213911290119510961A
:101AA0007D680F95B8680E90FB680D933D690C95A5
:101AB00079690B91BA690A92FE6909963D6A08959F
:101AC000786A0790BB6A0693FD6A0595396B0491A5
:101AD0007A6B0392BE6B0296FD6B0195386C009099
:101AE0007B6CBA6C1A49204618F0B8FE174B0022DE
:101AF0001A70184B01221A7007F150031846FEF7AE
:101B000057FC03469AB207F1500164230E4815F0C2
:101B1000ADFB114B1B78012B40F0B380044BD3F885
:101B2000C030BB64024BD3F8C410796416E000BF28
:101B30006C0200246C0300246C04002498D001087B
:101B4000060E0024070E002434150024080E00247D
:101B5000ECD00108090E00240A0E00249A4BD3F899
:101B6000C8003864984BD3F8CC40FC63964BD3F84C
:101B7000D060BE63944BD3F8D4207A63924BD3F8F1
:101B8000D8103963904BD3F8DC40FC628F4BD3F80C
:101B9000C030BB628D4BD3F8C40078628B4BD3F856
:101BA000C8403C62894BD3F8CC60FE61874BD3F8C8
:101BB000D020BA61854BD3F8D4107961834BD3F828
:101BC000D8403C61814BD3F8DC30FB60804BD3F8CC
:101BD000C000B8607E4BD3F8C4407C607C4BD3F827
:101BE000C8607B4BD3F8CC50794BD3F8D000784BFE
:101BF000D3F8D410764BD3F8D820754BD3F8DC301B
:101C000007F15004159314921391129011951096A8
:101C10007D680F95B8680E90FB680D933D690C9533
:101C200079690B91BA690A92FE6909963D6A08952D
:101C3000786A0790BB6A0693FD6A0595396B049133
:101C40007A6B0392BE6B0296FD6B0195386C009027
:101C50007B6CBA6C5F49204618F000FE5E4B002298
:101C60001A705E4B01221A7007F150031846FEF7F6
:101C70009FFB03469AB207F150016423584815F0C0
:101C8000F5FA584B1B78012B41F08D804E4BD3F861
:101C9000E030BB644C4BD3F8E41079644A4BD3F882
:101CA000E8003864484BD3F8EC40FC63464BD3F86B
:101CB000F060BE63444BD3F8F4207A63424BD3F810
:101CC000F8103963404BD3F8FC40FC623F4BD3F82B
:101CD000E030BB623D4BD3F8E40078623B4BD3F875
:101CE000E8403C62394BD3F8EC60FE61374BD3F8E7
:101CF000F020BA61354BD3F8F4107961334BD3F847
:101D0000F8403C61314BD3F8FC30FB60304BD3F8EA
:101D1000E000B8602E4BD3F8E4407C602C4BD3F845
:101D2000E8602B4BD3F8EC50294BD3F8F000284B4C
:101D3000D3F8F410264BD3F8F820254BD3F8FC3019
:101D400007F1500415931492139112901195109667
:101D50007D680F95B8680E90FB680D933D690C95F2
:101D600079690B91BA690A92FE6909963D6A0895EC
:101D7000786A0790BB6A0693FD6A0595396B0491F2
:101D80007A6B0392BE6B0296FD6B0195386C0090E6
:101D90007B6CBA6C1449204618F060FD114B002290
:101DA0001A70124B01221A7007F150031846FEF701
:101DB000FFFA03469AB207F150016423084815F070
:101DC00055FA00F0F0BF00BF6C0200246C03002441
:101DD0006C04002440D101080A0E00240B0E0024DC
:101DE000341500240C0E002494D101080D0E00249B
:101DF000884B1B78012B7FD1874B1B68BB64864BBC
:101E000059687964844B98683864834BDC68FC6358
:101E1000814B1E69BE63804B5A697A637E4B996918
:101E200039637D4BDC69FC627C4B1B68BB627B4B7E
:101E300058687862794B9C683C62784BDE68FE613A
:101E4000764B1A69BA61754B59697961734B9C6914
:101E50003C61724BDB69FB60714B1868B860704B7A
:101E60005C687C606E4B9E686D4BDD686C4B1869DE
:101E70006B4B59696A4B9A69694BDB6907F15004EE
:101E80001593149213911290119510967D680F95E9
:101E9000B8680E90FB680D933D690C9579690B91BC
:101EA000BA690A92FE6909963D6A0895786A0790B0
:101EB000BB6A0693FD6A0595396B04917A6B0392B0
:101EC000BE6B0296FD6B0195386C00907B6CBA6C12
:101ED0005449204618F0C2FC4E4B00221A7007F1FC
:101EE00050031846FEF764FA03469AB207F1500110
:101EF00064234D4815F0BAF94C4B1B78012B7FD168
:101F0000454B1B6ABB64444B596A7964424B986ADF
:101F10003864414BDC6AFC633F4B1E6BBE633E4B37
:101F20005A6B7A633C4B996B39633B4BDC6BFC62BD
:101F30003A4B1B6ABB62394B586A7862374B9C6AD2
:101F40003C62364BDE6AFE61344B1A6BBA61334B2E
:101F5000596B7961314B9C6B3C61304BDB6BFB60A7
:101F60002F4B186AB8602E4B5C6A7C602C4B9E6AC3
:101F70002B4BDD6A2A4B186B294B596B284B9A6BFC
:101F8000274BDB6B07F150041593149213911290B9
:101F9000119510967D680F95B8680E90FB680D93AB
:101FA0003D690C9579690B91BA690A92FE690996A7
:101FB0003D6A0895786A0790BB6A0693FD6A0595A5
:101FC000396B04917A6B0392BE6B0296FD6B01959F
:101FD000386C00907B6CBA6C1549204618F03EFCBA
:101FE000124B00221A7007F150031846FEF7E0F971
:101FF00003469AB207F15001C8230B4815F036F991
:102000000C4B1B78012B40F09480034B1B6CBB6482
:1020100012E000BFFF0D00246C0500246C060024B4
:102020006C070024E8D1010834150024010E0024B7
:102030003CD20108030E00248A4B596C7964894B09
:10204000986C3864874BDC6CFC63864B1E6DBE63FA
:10205000844B5A6D7A63834B996D3963814BDC6D88
:10206000FC62814B1B6CBB627F4B586C78627E4B71
:102070009C6C3C627C4BDE6CFE617B4B1A6DBA61E2
:10208000794B596D7961784B9C6D3C61764BDB6D7A
:10209000FB60764B186CB860744B5C6C7C60734B67
:1020A0009E6C724BDD6C714B186D704B596D6F4BA4
:1020B0009A6D6E4BDB6D07F15004159314921391DA
:1020C0001290119510967D680F95B8680E90FB6878
:1020D0000D933D690C9579690B91BA690A92FE6975
:1020E00009963D6A0895786A0790BB6A0693FD6A6F
:1020F0000595396B04917A6B0392BE6B0296FD6B6A
:102100000195386C00907B6CBA6C5949204618F0E8
:10211000A5FB584B00221A7007F150031846FEF732
:1021200047F903469AB207F15001C823524815F007
:102130009DF8524B1B78012B40F08180494B1B6E60
:10214000BB64484B596E7964464B986E3864454B76
:10215000DC6EFC63434B1E6FBE63424B5A6F7A6367
:10216000404B996F39633F4BDC6FFC623E4B1B6EFB
:10217000BB623D4B586E78623B4B9C6E3C623A4B67
:10218000DE6EFE61384B1A6FBA61374B596F796159
:10219000354B9C6F3C61344BDB6FFB60334B186EEF
:1021A000B860324B5C6E7C60304B9E6E2F4BDD6EA8
:1021B0002E4B186F2D4B596F2C4B9A6F2B4BDB6F9F
:1021C00007F15004159314921391129011951096E3
:1021D0007D680F95B8680E90FB680D933D690C956E
:1021E00079690B91BA690A92FE6909963D6A089568
:1021F000786A0790BB6A0693FD6A0595396B04916E
:102200007A6B0392BE6B0296FD6B0195386C009061
:102210007B6CBA6C1A49204618F020FB174B002241
:102220001A7007F150031846FEF7C2F803469AB237
:1022300007F150014FF496730F4815F017F8114B42
:102240001B78012B40F0AD80064BD3F88030BB6487
:10225000044BD3F884107964024BD3F888003864B7
:1022600012E000BF6C0500246C0600246C070024FB
:1022700090D20108030E002434150024050E00241A
:10228000E4D20108070E0024A24BD3F88C40FC6373
:10229000A04BD3F89060BE639E4BD3F894207A6332
:1022A0009C4BD3F8981039639A4BD3F89C40FC624E
:1022B000994BD3F88030BB62974BD3F88400786297
:1022C000954BD3F888403C62934BD3F88C60FE6109
:1022D000914BD3F89020BA618F4BD3F89410796169
:1022E0008D4BD3F898403C618B4BD3F89C30FB600E
:1022F0008A4BD3F88000B860884BD3F884407C6068
:10230000864BD3F88860854BD3F88C50834BD3F839
:102310009000824BD3F89410804BD3F898207F4BD9
:10232000D3F89C3007F15004159314921391129036
:10233000119510967D680F95B8680E90FB680D9307
:102340003D690C9579690B91BA690A92FE69099603
:102350003D6A0895786A0790BB6A0693FD6A059501
:10236000396B04917A6B0392BE6B0296FD6B0195FB
:10237000386C00907B6CBA6C6949204618F06EFA94
:10238000684B00221A7007F150031846FEF710F848
:1023900003469AB207F150014FF4C873624814F033
:1023A00065FF624B1B78012B40F09980594BD3F8A5
:1023B000A030BB64574BD3F8A4107964554BD3F8C5
:1023C000A8003864534BD3F8AC40FC63514BD3F8AE
:1023D000B060BE634F4BD3F8B4207A634D4BD3F853
:1023E000B81039634B4BD3F8BC40FC624A4BD3F86E
:1023F000A030BB62484BD3F8A4007862464BD3F8B8
:10240000A8403C62444BD3F8AC60FE61424BD3F829
:10241000B020BA61404BD3F8B41079613E4BD3F889
:10242000B8403C613C4BD3F8BC30FB603B4BD3F82D
:10243000A000B860394BD3F8A4407C60374BD3F888
:10244000A860364BD3F8AC50344BD3F8B000334BC4
:10245000D3F8B410314BD3F8B820304BD3F8BC309C
:1024600007F1500415931492139112901195109640
:102470007D680F95B8680E90FB680D933D690C95CB
:1024800079690B91BA690A92FE6909963D6A0895C5
:10249000786A0790BB6A0693FD6A0595396B0491CB
:1024A0007A6B0392BE6B0296FD6B0195386C0090BF
:1024B0007B6CBA6C1E49204618F0D0F91B4B0022E9
:1024C0001A7007F150031846FDF772FF03469AB2DF
:1024D00007F150014FF4FA73134814F0C7FE154B7F
:1024E0001B78012B40F0AD800A4BD3F8C030BB64A1
:1024F000084BD3F8C4107964064BD3F8C80038648D
:10250000044BD3F8CC40FC63024BD3F8D060BE63DD
:1025100012E000BF6C0500246C0600246C07002448
:1025200038D30108070E002434150024090E0024B6
:102530008CD301080B0E00249F4BD3F8D4207A6370
:102540009D4BD3F8D81039639B4BD3F8DC40FC6229
:102550009A4BD3F8C030BB62984BD3F8C400786272
:10256000964BD3F8C8403C62944BD3F8CC60FE61E4
:10257000924BD3F8D020BA61904BD3F8D410796144
:102580008E4BD3F8D8403C618C4BD3F8DC30FB60E9
:102590008B4BD3F8C000B860894BD3F8C4407C6043
:1025A000874BD3F8C860864BD3F8CC50844BD3F814
:1025B000D000834BD3F8D410814BD3F8D820804B74
:1025C000D3F8DC3007F15004159314921391129054
:1025D000119510967D680F95B8680E90FB680D9365
:1025E0003D690C9579690B91BA690A92FE69099661
:1025F0003D6A0895786A0790BB6A0693FD6A05955F
:10260000396B04917A6B0392BE6B0296FD6B019558
:10261000386C00907B6CBA6C6A49204618F01EF941
:10262000694B00221A7007F150031846FDF7C0FEEF
:1026300003469AB207F150014FF41673634814F041
:1026400015FE634B1B78012B40F099805A4BD3F851
:10265000E030BB64584BD3F8E4107964564BD3F8A0
:10266000E8003864544BD3F8EC40FC63524BD3F889
:10267000F060BE63504BD3F8F4207A634E4BD3F82E
:10268000F81039634C4BD3F8FC40FC624B4BD3F849
:10269000E030BB62494BD3F8E4007862474BD3F893
:1026A000E8403C62454BD3F8EC60FE61434BD3F805
:1026B000F020BA61414BD3F8F41079613F4BD3F865
:1026C000F8403C613D4BD3F8FC30FB603C4BD3F809
:1026D000E000B8603A4BD3F8E4407C60384BD3F864
:1026E000E860374BD3F8EC50354BD3F8F000344B5F
:1026F000D3F8F410324BD3F8F820314BD3F8FC3038
:1027000007F150041593149213911290119510969D
:102710007D680F95B8680E90FB680D933D690C9528
:1027200079690B91BA690A92FE6909963D6A089522
:10273000786A0790BB6A0693FD6A0595396B049128
:102740007A6B0392BE6B0296FD6B0195386C00901C
:102750007B6CBA6C1F49204618F080F81C4B002295
:102760001A7007F150031846FDF722FE03469AB28D
:1027700007F150014FF42F73144814F077FD164BF6
:102780001B78012B46D1154B1B68BB64134B596852
:102790007964124B9B68114AD268104909690F4845
:1027A00040690E4CA4690D4DED6907F15006059581
:1027B0000494039014E000BF6C0500246C06002410
:1027C0006C070024E0D301080B0E0024341500240C
:1027D0000D0E002434D40108120E00242C01002414
:1027E0000291019200937B6CBA6C8B49304618F0D1
:1027F00035F88A4B00221A7007F150031846FDF78E
:10280000D7FD03469AB207F150014FF42F73844865
:1028100014F02CFD834B1B78012B40F08480824BFD
:102820001B68BB64804B596879647F4B9868386437
:102830007D4BDC68FC637C4B1E69BE637A4B5A6936
:102840007A63794B99693963774BDC69FC62774B22
:102850001B68BB62754B58687862744B9C683C621D
:10286000724BDE68FE61714B1A69BA616F4B596930
:1028700079616E4B9C693C616C4BDB69FB606C4B16
:102880001868B8606A4B5C687C60694B9E68684BEE
:10289000DD68674B1869664B5969654B9A69644BEB
:1028A000DB6907F15004159314921391129011955E
:1028B00010967D680F95B8680E90FB680D933D6982
:1028C0000C9579690B91BA690A92FE6909963D6A7D
:1028D0000895786A0790BB6A0693FD6A0595396B7F
:1028E00004917A6B0392BE6B0296FD6B0195386C76
:1028F00000907B6CBA6C4F49204617F0AFFF494BF4
:1029000000221A70454B01221A7007F15003184635
:10291000FDF74EFD03469AB207F150014FF42F73B5
:102920003F4814F0A3FC444B1B78012B40F09F80E0
:10293000424B1B68BB64414B596879643F4B9868B4
:1029400038643E4BDC68FC633C4B1E69BE633B4B0A
:102950005A697A63394B99693963384BDC69FC628F
:10296000374B1B68BB62364B58687862344B9C68A7
:102970003C62334BDE68FE61314B1A69BA61304B01
:10298000596979612E4B9C693C612D4BDB69FB6079
:102990002C4B1868B8602B4B5C687C60294B9E6898
:1029A000284BDD68274B1869264B5969254B9A69D6
:1029B000244BDB6907F15004159314921391129084
:1029C000119510967D680F95B8680E90FB680D9371
:1029D0003D690C9579690B91BA690A92FE6909966D
:1029E0003D6A0895786A0790BB6A0693FD6A05956B
:1029F000396B04917A6B0392BE6B0296FD6B019565
:102A0000386C00907B6CBA6C0F49204617F026FF9B
:102A1000094B00221A7019E088D40108120E002414
:102A200034150024100E0024CC000024EC000024F7
:102A30000C010024B0D401080E0E00246C00002408
:102A40008C000024AC0000240CD501088E4B012220
:102A50001A7007F150031846FDF7AAFC03469AB214
:102A600007F150014FF42F73884814F0FFFB884B97
:102A70001B78012B30D1874B1B68BB64854B596891
:102A80007964844B9B68834AD2688249096981488A
:102A90004069804CA4697F4DED6907F150060595AA
:102AA000049403900291019200937B6CBA6C7A4972
:102AB000304617F0D3FE764B00221A7007F1500310
:102AC0001846FDF775FC03469AB207F150014FF422
:102AD0002F736E4814F0CAFB704B1B78012B40F02B
:102AE00084806F4B1B68BB646D4B596879646C4B79
:102AF000986838646A4BDC68FC63694B1E69BE6386
:102B0000674B5A697A63664B99693963644BDC6930
:102B1000FC62644B1B68BB62624B58687862614B15
:102B20009C683C625F4BDE68FE615E4B1A69BA616D
:102B30005C4B596979615B4B9C693C61594BDB6922
:102B4000FB60594B1868B860574B5C687C60564B0B
:102B50009E68554BDD68544B1869534B5969524B6D
:102B60009A69514BDB6907F1500415931492139144
:102B70001290119510967D680F95B8680E90FB68BD
:102B80000D933D690C9579690B91BA690A92FE69BA
:102B900009963D6A0895786A0790BB6A0693FD6AB4
:102BA0000595396B04917A6B0392BE6B0296FD6BAF
:102BB0000195386C00907B6CBA6C3C49204617F04C
:102BC0004DFE364B00221A70314B01221A7007F16C
:102BD00050031846FDF7ECFB03469AB207F150018B
:102BE0004FF42F73294814F041FB314B1B78012B14
:102BF00040F0DB802F4B1B68BB642E4B5968796417
:102C00002C4B986838642B4BDC68FC63294B1E699D
:102C1000BE63284B5A697A63264B99693963254B01
:102C2000DC69FC62244B1B68BB62234B58687862EA
:102C3000214B9C683C62204BDE68FE611E4B1A698A
:102C4000BA611D4B596979611B4B9C693C611A4BF8
:102C5000DB69FB60194B1868B860184B5C687C60D6
:102C6000164B9E68154BDD68144B1869134B596958
:102C7000124B9A69114BDB6907F1500415931492BA
:102C8000139112901CE000BF100E00243415002494
:102C9000130E00242C02002464D50108110E002418
:102CA000CC010024EC0100240C0200248CD5010886
:102CB0000F0E00246C0100248C010024AC010024C0
:102CC000119510967D680F95B8680E90FB680D936E
:102CD0003D690C9579690B91BA690A92FE6909966A
:102CE0003D6A0895786A0790BB6A0693FD6A059568
:102CF000396B04917A6B0392BE6B0296FD6B019562
:102D0000386C00907B6CBA6C2A49204617F0A6FDFF
:102D1000294B00221A70294B01221A7007F1500327
:102D20001846FDF745FB03469AB207F150014FF4F0
:102D30002F73234814F09AFA37E0224B1B789C46F5
:102D4000204B5B789E461F4B9B781A461D4BDB78C9
:102D500019461C4B1B791C461A4B5B791D46194BB7
:102D60009B791E46174BDB7907F1500005930496BB
:102D7000039502940191009273466246124917F03E
:102D80006DFD07F150031846FDF712FB03469AB29A
:102D900007F15001C8230A4814F068FA06E000BFA2
:102DA00004E000BF02E000BF00E000BFBC37BD464A
:102DB000F0BD00BFE4D501080F0E0024110E002461
:102DC00034150024140E00243CD6010880B582B0CE
:102DD00000AF7860114B1B78012B1AD1104B0122E8
:102DE0001A70104B104A92E80300186004331970EF
:102DF00079680C4817F032FE0A48FDF7D9FA034605
:102E00001A46084B1344094A1188927819809A701F
:102E100000E000BF0837BD4680BD00BFD40A0024D3
:102E20006C0B00241C0B002458D6010860D6010846
:102E300080B58AB000AF00233B61D5233B752F4B93
:102E4000BB602F4BFB602F4BFB612F4BBB612F4BAC
:102E50003B6207F1080319462D4805F0D7FAFB1D20
:102E600019462B4805F0B5FBFB791946294817F0A0
:102E700085FCFB796C2B12D0274B1B780133DAB21F
:102E8000254B1A700A2006F0EFFE234B1B78032B0C
:102E900002D8FFF7CDFF02E0204B01221A701F4B32
:102EA00000221A70B2EE040A194805F013FCB2EEC3
:102EB000040A174805F026FF0121154805F0C1FE58
:102EC0001F21134805F0EEFE0121114805F002FF15
:102ED00004210F4805F0AEFD3B4619460C4805F0AD
:102EE000D1FD0B4805F0FCFA094805F088FB0A4BB8
:102EF00000221A7000BF2837BD4680BDB106000809
:102F00002D070008E10700087D07000845080008B4
:102F1000E40A002464D60108D015002442110024DC
:102F200080B582B000AF002000F01EF878607B68AA
:102F3000002B01D07B680FE0094B1B78012B0AD1D5
:102F4000084B4FF000021A61064B4FF000025A6125
:102F50004FF0FF337B607B6818460837BD4680BD65
:102F600042110024640C002480B586B000AF0346F3
:102F7000FB8000237B6107F108031946374805F001
:102F8000A5FD78617B69002B01D07B6962E0344B41
:102F9000B3F900301A46BB681344002B00DA013342
:102FA0005B101AB22E4B1A802D4BB3F902301A4621
:102FB000FB681344002B00DA01335B101AB2284B74
:102FC0005A80274BB3F904301A463B691344002B4F
:102FD00000DA01335B101AB2214B9A80214A20217A
:102FE0001E4805F0F9FD78617B69002B01D07B69F3
:102FF00030E01D4A2121194805F0EEFD78617B691A
:10300000002B01D07B6925E0174B1B7807EE903A27
:10301000B8EE677A134B1B7807EE903AF8EE676AC2
:103020009FED126AC6EE867A77EE277AB3EE097ABA
:1030300077EE877AFDEEE77A17EE903A1AB2084BF0
:10304000DA80074B01221A817B69002B01D07B6952
:1030500000E07B6918461837BD4680BDE40A0024AD
:10306000C8150024DD0A0024DE0A00240000804385
:10307000B0B500AFBC4B1B680133BB4A1360BA4B01
:103080001B68632B01DC012354E1B74B00221A605B
:10309000FFF746FF0346002B06D0FFF7C9FEB34BF0
:1030A00001221A70FF2345E1B04B00221A70B04B89
:1030B000B3F90830012B40F03D81AD4BB3F902303C
:1030C0005B4207EE903AF8EEE77AB7EEE77AA84B64
:1030D000B3F904305B4206EE903AF8EEE66AB7EEDA
:1030E000E66AB0EE461BB0EE470B19F0E3FCB0EE1B
:1030F000407B9FED916B37EE067B9FED916B27EE4A
:10310000067BF7EEC77B9B4BC3ED007A984BB3F978
:1031100000305B4207EE903AF8EEE77AB7EEE77AD6
:10312000934BB3F904305B4206EE903AF8EEE66A50
:10313000B7EEE66AB0EE461BB0EE470B19F0BAFCEC
:10314000B0EE407B9FED7C6B37EE067B9FED7C6B9A
:1031500027EE067BF7EEC77B864BC3ED017A844BE7
:10316000B3F902305B4207EE903AF8EEE77AB7EE39
:10317000E77A7F4BB3F900305B4206EE903AF8EE07
:10318000E66AB7EEE66AB0EE461BB0EE470B19F002
:1031900091FCB0EE407B9FED686B37EE067B9FEDB8
:1031A000686B27EE067BF7EEC77B724BC3ED027AA6
:1031B0006F4BB3F906301A466E4BDA606D4BD3EDA8
:1031C000007A9FED6D7AF4EEC77AF1EE10FA09DD20
:1031D000684BD3ED007A9FED697A77EEC77A654B3D
:1031E000C3ED007A634BD3ED017A9FED637AF4EE81
:1031F000C77AF1EE10FA09DD5E4BD3ED017A9FED4F
:103200005F7A77EEC77A5B4BC3ED017A594BD3ED0A
:10321000027A9FED597AF4EEC77AF1EE10FA09DDE1
:10322000544BD3ED027A9FED557A77EEC77A514B26
:10323000C3ED027A4E4B00221A814E4BD3ED027A37
:10324000F5EEC07AF1EE10FA12DD4A4BD3ED027AB8
:103250009FED497A77EEC77AB7EEE77A9FED3A6B42
:1032600037EE067BF7EEC77B424BC3ED047A11E0E5
:10327000404BD3ED027A9FED407A77EE877AB7EE36
:10328000E77A9FED316B37EE067BF7EEC77B394B64
:10329000C3ED047A374BD3ED017A9FED397A77EE9F
:1032A000877AB7EEE77A9FED2A6B37EE467BF7EE2B
:1032B000C77B304BC3ED057A2E4BD3ED047AB7EEC6
:1032C000E77A9FED256B27EE066B2E4BD3ED047A44
:1032D000B7EEE77A9FED225B27EE057B36EE077BA4
:1032E000F7EEC77B234BC3ED047A224BD3ED057A6F
:1032F000B7EEE77A9FED186B27EE066B214BD3ED07
:10330000057AB7EEE77A9FED165B27EE057B36EE82
:10331000077BF7EEC77B174BC3ED057A194A154BB0
:1033200014461D460FCD0FC495E8030084E8030042
:103330000023FFE71846B0BD4AD8124DFB210940D3
:1033400012143FC6DCA54C409A9999999999F13F7E
:1033500033333333333303409A9999999999A93F79
:10336000666666666666EE3FD41500244211002448
:10337000C8150024640C0024000034430000B4434A
:103380000000B4427C0C002480B500AF0B4B1B68DE
:1033900000229A630A4B1B6800225A6300210848E6
:1033A00012F042FE0421054812F03EFE054B0022B9
:1033B0001A70054B00221A7000BF80BDB81300249C
:1033C000041400246E0B0024480C002400000000AC
:1033D00080B48BB000AF4FF000033B624FF00003AE
:1033E000FB614FF00003BB614FF000037B611423CE
:1033F0003B6110E03B69013B574A32F81310564AD3
:103400003B6922F81310554B1B681A8B524B1A80DC
:103410003B69013B3B613B69002BEBDC4E4B1B8D59
:10342000002B03D14FF000037B626DE00023FB60B3
:1034300049E0FB6807EE903AF8EEE77AB7EEE77AF4
:103440009FED416B27EE067BF7EEC77BC7ED027A57
:10345000414AFB6832F8133007EE903AF8EE677A8B
:10346000B7EEE77A9FED3A6B27EE067BF7EEC77B68
:10347000C7ED017A97ED017AD7ED027A67EE277AE8
:1034800097ED087A77EE277AC7ED087AD7ED027ABA
:1034900067EEA77A97ED077A77EE277AC7ED077A76
:1034A00097ED067AD7ED017A77EE277AC7ED067A9F
:1034B00097ED057AD7ED027A77EE277AC7ED057A90
:1034C000FB680133FB60FB68132BB2DDD7ED087A94
:1034D000B3EE047A27EE877AD7ED056AD7ED067A40
:1034E00066EEA77A77EE676AD7ED077AB3EE047ACD
:1034F00027EE877AD7ED057A67EEA77A37EE677AF7
:10350000C6EE877AC7ED097A154B1B881A4641F635
:1035100057331344114A1268128B934207DB97ED1D
:10352000097AF0EE006AC7EE267AC7ED097AD7ED80
:10353000097AF1EE677AB0EE670A2C37BD465DF87E
:10354000047B7047AFF300807B14AE47E17A843F81
:103550007B14AE47E17A643F7C100024F40B002416
:103560008008002484B080B487B000AF786007F191
:10357000240080E80E0000233B610023FB60D7EDB0
:103580000D7AB2EE0A7AF4EEC77AF1EE10FA08DCA0
:10359000D7ED0D7ABAEE0A7AF4EEC77AF1EE10FAA8
:1035A00002D54FF0FF33E9E0D7ED0E7AB2EE0A7A9A
:1035B000F4EEC77AF1EE10FA08DCD7ED0E7ABAEE27
:1035C0000A7AF4EEC77AF1EE10FA02D56FF0010331
:1035D000D4E00923BB6000237B611FE097ED0D7AE7
:1035E0007B690133694A9B001344D3ED007AB4EE42
:1035F000E77AF1EE10FA0ED897ED0D7A634A7B69FF
:103600009B001344D3ED007AB4EEE77AF1EE10FAA2
:1036100001DD7B693B617B6901337B61BB68013BF9
:103620007A699A42DADB0923BB6000237B611FE0E1
:1036300097ED0E7A7B690133554A9B001344D3ED15
:10364000007AB4EEE77AF1EE10FA0ED897ED0E7A22
:103650004F4A7B699B001344D3ED007AB4EEE77ABE
:10366000F1EE10FA01DD7B69FB607B6901337B6160
:10367000BB68013B7A699A42DADB7B68012B3CD15B
:10368000444A3B6952F82330434A1360434A3B693A
:1036900052F82330424A1360424A3B6952F82330C1
:1036A000414A1360414A3B6952F82330404A136053
:1036B000404A3B6952F823303F4A13603F4A3B6916
:1036C00052F823303E4A13603E4B1B78132B0AD826
:1036D0003C4B1B78002B06D03B4A3B6952F8233009
:1036E0003A4A136003E0394B4FF496721A60384A35
:1036F0003B6952F82330374A13607B68022B3CD178
:10370000354AFB6852F82330234A1360334AFB687A
:1037100052F82330224A1360314AFB6852F82330B2
:10372000214A13602F4AFB6852F82330204A136065
:103730002D4AFB6852F823301F4A13602B4AFB685E
:1037400052F823301E4A13601E4B1B78132B0AD8E5
:103750001C4B1B78002B06D0254AFB6852F82330FF
:103760001A4A136003E0194B4FF496721A60214A0B
:10377000FB6852F82330174A1360002318461C37A1
:10378000BD465DF8047B04B0704700BF24000024F0
:10379000480000246C010024B01000248C01002497
:1037A000B4100024AC010024B8100024CC01002483
:1037B000BC100024EC010024C01000240C020024E2
:1037C000C4100024781000242C020024CC10002403
:1037D0004C020024C81000246C0000248C0000243B
:1037E000AC000024CC000024EC0000240C010024D8
:1037F0002C0100244C01002484B090B585B004AFA6
:1038000007F1100484E80F00D7ED097AB0EE087ACA
:10381000F4EEC77AF1EE10FA49D5D7ED097AB8EE91
:10382000087AF4EEC77AF1EE10FA40DDD7ED087AA7
:10383000B0EE087AF4EEC77AF1EE10FA37D5D7ED8C
:10384000087AB8EE087AF4EEC77AF1EE10FA2EDDB7
:10385000334B1B68334A1360334B1B68334A136086
:10386000334B1B68334A1360334B1B68334A136076
:10387000334B1B68334A1360334B1B68334A136066
:10388000334B1B78132B08D8314B1B78002B04D0FB
:10389000304B1B68304A136003E02F4B4FF4967295
:1038A0001A602E4B1B682E4A1360002330E0D7EDC0
:1038B000097AFDEEE77A17EE903A83EAE372A2EB1B
:1038C000E372D7ED087AFDEEE77A17EE903A002B17
:1038D000B8BF5B429A420DDD6C4607F11C0393E8CA
:1038E000070084E8070007F110030ECB0220FFF762
:1038F00039FE0CE06C4607F11C0393E8070084E8EE
:10390000070007F110030ECB0120FFF72BFE002369
:1039100018460437BD46BDE8904004B0704700BF6C
:1039200004000024B010002408000024B410002477
:103930000C000024B810002410000024BC10002447
:1039400014000024C010002418000024C410002417
:10395000781000241C000024CC1000242000002437
:10396000C810002480B582B000AF944B5A78944BB5
:103970001B7E5340BB71914B1B78002B0CBF012366
:103980000023DBB27B718F4B00221A608E4B1B78B9
:10399000002B00F0AD838C4B00221A708B4B1B78F0
:1039A0001846864B0ECB00F0BFFB894B1B78012BD2
:1039B00047D1874B00221A70804B1B791B015AB2EA
:1039C00097F9053013435BB2DAB2824B1A70824B1F
:1039D0001A78804B5A707F4B00229A707D4B0022E0
:1039E000DA707C4B00221A717A4B00225A71794BA3
:1039F00009229A71774B0222DA71802177480DF003
:103A000047FD0346002B0FD100224FF4007173488D
:103A10000DF056FD022006F027F901224FF4007147
:103A20006E480DF04DFD0CE06A4A6D496D480BF093
:103A300001FE0346002B04D04FF4B8716A4802F02F
:103A40007FFB6A4B1B78012B56D1684B00221A7002
:103A5000674B1B681B8ADAB25E4B5A70644B1B685B
:103A60001B8A1B0A9BB2DAB25A4B1A70604B1B6856
:103A70005B8ADAB2574BDA705D4B1B685B8A1B0AB4
:103A80009BB2DAB2534B9A70594B1B681B8B1B0AC3
:103A90009BB2DAB24F4B1A71554B1B681B8BDAB2D3
:103AA0004C4B5A714B4B00229A714A4B0022DA71EF
:103AB00080214A480DF0ECFC0346002B0FD1002278
:103AC0004FF4007145480DF0FBFC022006F0CCF8E5
:103AD00001224FF4007141480DF0F2FC0CE03D4A28
:103AE000444940480BF0A6FD0346002B04D040F2A9
:103AF0008F113D4802F024FB3F4B1B78012B40F017
:103B00008C803D4B00221A702C4B9B79002B02D0ED
:103B10000123FB7108E0294B1B7A002B02D0022302
:103B2000FB7101E00023FB71344B1B78012B05D1A5
:103B3000224B01225A70314B00221A70BB791B01B3
:103B40005AB297F9073013435BB2DAB2214B1A70BD
:103B50001A4B1B791B015AB297F9053013435BB21C
:103B6000DAB21C4B5A701C4B1A781A4B9A70194ACD
:103B7000BB79D370174B09221A71164B02225A7166
:103B8000144B00229A71134B0022DA7180211348E2
:103B90000DF07EFC0346002B32D100224FF4007161
:103BA0000E480DF08DFC022006F05EF801224FF465
:103BB00000710A480DF084FC2FE000BF300C002497
:103BC000D01000241C1100241D0C002478100024A7
:103BD000E60B00241C0E0024840800240008025870
:103BE000700E0024081300246CD60108E70B002493
:103BF000F40B0024940E0024E80B0024EB0B0024AB
:103C0000994A9A499A480BF015FD0346002B04D0B7
:103C10004FF4DD71974802F093FA974B1B78012B14
:103C200063D1954B00221A70BB791B015AB2934B9A
:103C30009B785BB213435BB2DAB28B4B1A70904B3A
:103C40001B78022B0CBF01230023DBB21A46864BE4
:103C50005A708A4BDA7A894B1B7C1343DAB2824B57
:103C60009A70884B1A78804BDA70844B1B8C1B0A35
:103C70009BB2DAB27C4B1A71804B1B8CDAB27A4B56
:103C80005A71814B1B781B015AB27F4B1B795BB277
:103C900013435BB2DAB2744B9A717C4B1A78724B55
:103CA000DA7180217A480DF0F3FB0346002B0FD127
:103CB00000224FF4007176480DF002FC022005F05E
:103CC000D3FF01224FF4007171480DF0F9FB0CE0B5
:103CD000654A704966480BF0ADFC0346002B04D0E2
:103CE00040F2D711634802F02BFA634BDB78012BCB
:103CF0003ED1614B0022DA705B4B00221A705A4BA6
:103D000001225A70584B02229A70574B0322DA70E4
:103D1000554B04221A71544B05225A71524B0622FC
:103D20009A71514B0722DA71802159480DF0B0FB8E
:103D30000346002B0FD100224FF4007154480DF0C0
:103D4000BFFB022005F090FF01224FF400715048A4
:103D50000DF0B6FB0CE0444A4F4945480BF06AFCB5
:103D60000346002B04D040F20F21424802F0E8F94C
:103D7000414B1B79012B3ED13F4B00221A713A4B2C
:103D800000221A70384B01225A70374B02229A7067
:103D9000354B0322DA70344B04221A71324B052260
:103DA0005A71314B06229A712F4B0722DA7180210A
:103DB00037480DF06DFB0346002B0FD100224FF466
:103DC000007133480DF07CFB022005F04DFF01220D
:103DD0004FF400712E480DF073FB0CE0224A2F497E
:103DE00023480BF027FC0346002B04D040F20F21A0
:103DF000204802F0A5F9204B9B78012B5FD11E4B88
:103E000000229A70264B1B68DAB2174B1A70164BB9
:103E100001225A70144B02229A70134B0322DA705B
:103E2000114B04221A71104B05225A710E4B0622B7
:103E30009A710D4B0722DA71802115480DF028FB8D
:103E40000346002B2ED100224FF4007110480DF0D4
:103E500037FB022005F008FF01224FF400710C48E7
:103E60000DF02EFB2BE000BF1C0E00244C0E002496
:103E7000081300246CD60108140C0024D010002470
:103E8000A00B002484080024300C002442110024DC
:103E900000080258B80E0024240F0024480F002404
:103EA000AC0B0024944A954995480BF0C3FB03469C
:103EB000002B04D040F20F21924802F041F9924BBE
:103EC0009B79012B46D1904B00229A718F4B1B6836
:103ED0001B8B1B0A9BB2DAB2874B1A708B4B1B6889
:103EE0001B8BDAB2844B5A70834B00229A70824B40
:103EF0000022DA70804B00221A717F4B00225A7127
:103F00007D4B00229A717C4B0022DA71802180481F
:103F10000DF0BEFA0346002B0FD100224FF40071C2
:103F20007B480DF0CDFA022005F09EFE01224FF4F1
:103F3000007177480DF0C4FA0CE06F4A754970487B
:103F40000BF078FB0346002B04D040F20F216D48A4
:103F500002F0F6F86C4BDB79012B40D16A4B002262
:103F6000DA716D4B1B68DAB2634B1A70624B002238
:103F70005A70614B00229A705F4B0022DA705E4BE0
:103F800000221A715C4B00225A715B4B00229A711D
:103F9000594B0022DA7180215D480DF079FA034611
:103FA000002B0FD100224FF4007159480DF088FA10
:103FB000022005F059FE01224FF4007154480DF023
:103FC0007FFA0CE04C4A55494D480BF033FB034651
:103FD000002B04D040F29F214A4802F0B1F84A4B2E
:103FE0001B7A012B40D1484B00221A724A4B1B68A6
:103FF000DAB2414B1A70404B00225A703E4B0022FD
:104000009A703D4B0022DA703B4B00221A713A4BFA
:1040100000225A71384B00229A71374B0022DA7114
:1040200080213B480DF034FA0346002B0FD10022CB
:104030004FF4007136480DF043FA022005F014FEEB
:1040400001224FF4007132480DF03AFA0CE02A4A8E
:1040500033492B480BF0EEFA0346002B04D040F214
:104060009F21284802F06CF8274B5B78012B40D148
:10407000254B00225A70204B00221A701E4B012241
:104080005A701D4B02229A701B4B0322DA701A4B96
:1040900004221A71184B05225A71174B06229A7185
:1040A000154B0722DA71802119480DF0F1F903460A
:1040B000002B0FD100224FF4007115480DF000FACB
:1040C000022005F0D1FD01224FF4007110480DF0DF
:1040D000F7F90EE0084A134909480BF0ABFA03461A
:1040E000002B06D04FF4FA71064802F029F800E0E0
:1040F00000BF0837BD4680BD1C0E0024000F002401
:10410000081300246CD60108140C0024F40B0024BE
:10411000000802586C0F0024AC0B0024900F002400
:10412000B40F0024DC0E002490B484B000AF044629
:10413000384680E80E002346FB733D4B1B68002B7E
:1041400003D03C4B0B221A7063E03B78002B03D06A
:10415000384B05221A705CE03B79002B03D0354BBD
:1041600006221A7055E0FB7B022B0ED9FB7B042B39
:104170000BD8314B1B78002B03D02E4B07221A7023
:1041800047E02C4B01221A7043E0FB7B072B0ED932
:10419000FB7B092B0BD8284B1B78002B03D0254B1E
:1041A00008221A7035E0234B02221A7031E0FB7BA3
:1041B0000F2B03D11F4B07221A702AE0FB7B0F2B1A
:1041C00003D91C4B08221A7023E01C4BD3ED007A54
:1041D000B7EEE77A9FED126BB4EEC67BF1EE10FA04
:1041E00003D5144B03221A7013E0144BD3ED007A5D
:1041F000B7EEE77A9FED0C6BB4EEC67BF1EE10FAEA
:1042000003DD0C4B04221A7003E00A4B00221A70E3
:10421000FFE700BF1037BD4690BC7047AFF300808A
:104220009A9999999999C9BF9A9999999999C93FD0
:10423000AC0B002484080024EA0B0024E00A0024CC
:10424000F0B589B006AF884B1B78002B00F00281D7
:10425000854B00221A70854B01221A70844B002274
:104260001A70844B844A402184480BF03FFA03467D
:10427000002B04D040F27321814801F061FF7E4B96
:104280001B68012B3ED17C4B5B68002B3AD1794BEC
:104290001B78002B03D142F2107002F0F4FC754B36
:1042A0005B78002B14BF01230023DBB21A46754B49
:1042B0009A70704B9A78734BDA706E4BDA78714B58
:1042C0001A716C4B1B7903F00F03DAB26D4B1A7045
:1042D000684B1B791B09DAB26A4B1A76654B5B791E
:1042E00003F00F03DAB2674B1A72624B5B791B095A
:1042F000DAB2644B5A72634B1B7E012B02D1624BC4
:1043000001225A705C4B1B68202B07D15A4B5B680B
:10431000002B03D1574BDA795A4B5A70564B1B6816
:10432000102B26D1544B5B68002B22D1514B1A78AD
:10433000544B1A734F4B9A78524BDA71514B1B7B8B
:10434000012B03D14F4B01225A7112E04D4B1B7BC5
:10435000102B03D14B4B02225A710AE0494B1B7BB5
:10436000112B03D1474B03225A7102E0454B042223
:104370005A71414B1B68112B22D13F4B5B68002BBC
:104380001ED13C4B1B791B029BB23A4A5279134413
:10439000FB803C4AFB881384FB8807EE903AF8EEDA
:1043A000677AB7EEE77A9FED2E6B27EE067BB6EEC7
:1043B000006B37EE067BF7EEC77B324BC3ED077A17
:1043C0002D4B1B68512B27D12B4B5B68002B23D126
:1043D000284B1A782B4B9A74264B5A78294BDA744F
:1043E000244B9A78274B1A75224BDA78254B5A754D
:1043F000204B1A79234B9A751E4B5A79214BDA754B
:10440000204E6D4606F110040FCC0FC523682B60BB
:1044100096E80F0001F076F81A4B9B78002B09D133
:104420001A4B1B6840F2A952934203D8184B012241
:104430001A7102E0164B00221A71124E6D4606F1F7
:1044400010040FCC0FC523682B6096E80F0000F016
:1044500021F800E000BF0C37BD46F0BDAFF300808F
:10446000CBA145B6F3FD943FE50B0024590C002485
:104470005A0C0024140E0024240E002408130024D7
:104480007CD60108D0100024DC0D0024940B0024FD
:10449000480C002484B080B500AF07F1080C8CE80C
:1044A0000F00634B0022DA707B7B042B05D1642064
:1044B00001F0DEF85E4B0122DA707B7A042B05D125
:1044C000C82001F0D5F85A4B0122DA70594B1B680D
:1044D00040F20112934206D1564B5B68002B02D189
:1044E000652001F0C5F8534B1B68B3F5817F06D1F9
:1044F000504B5B68002B02D1662001F0B9F84D4BA0
:104500001B6840F20312934206D14A4B5B68002BB2
:1045100002D1672001F0ACF8464B1B68B3F5827FEF
:1045200006D1444B5B68002B02D1682001F0A0F853
:10453000404B1B6840F20122934206D13D4B5B6821
:10454000002B02D1C92001F093F83A4B1B6840F2CE
:104550000222934206D1374B5B68002B02D1CA205E
:1045600001F086F8334B1B6840F20322934206D1D8
:10457000304B5B68002B02D1CB2001F079F82D4B3A
:104580001B68B3F5017F06D12A4B5B68002B02D173
:10459000CC2001F06DF8274B1B6840F2015293428A
:1045A00007D1244B5B68002B03D14FF4CA7001F094
:1045B0005FF8214B1B78012B0AD11F4B1B79012B74
:1045C00006D14FF4967001F053F8194B0122DA70BE
:1045D000194B1B7A012B0AD1174B9B79012B06D162
:1045E0004FF4FA7001F044F8114B0122DA70134BCA
:1045F0001B68D3ED037AB2EE0E7AF4EEC77AF1EED1
:1046000010FA0BDC0D4B1B68D3ED027AB2EE0E7A7A
:10461000F4EEC77AF1EE10FA00DC03E040F22D1060
:1046200001F026F800BFBD46BDE8804004B07047E9
:10463000480C0024240E0024300C0024F40B002429
:1046400080B58CB002AF00237B621FE000237B604B
:104650007B6ABB600223FB6001233B612E4A7B6ABD
:1046600032F813307B6140F2FF73BB613B1D19468A
:104670002A480AF011FF0346002B04D040F2BD2166
:10468000274801F05DFD7B6A01337B627B6A092B61
:10469000DCDD002300930023022202211F480AF0E0
:1046A00071FF0346002B04D040F2C3211C4801F0E7
:1046B00047FD0022012119480BF084F90346002B25
:1046C00004D04FF43271164801F03AFD13480AF055
:1046D00086FF0346002B04D04FF43371104801F0DD
:1046E0002FFD80210F480CF0D3FE0346002B0ED186
:1046F00000224FF400710B480CF0E2FE022005F09E
:10470000B3FA01224FF4007106480CF0D9FE00BF45
:104710002837BD4680BD00BF6C0800240813002464
:104720008CD601080008025880B400AF9A4B602272
:104730001A60994B00225A60974B00229A60964B60
:104740000822DA60944B00221A61934B00225A61CE
:10475000914B00229A61904B0022DA618E4B00222D
:104760001A628E4B40221A608C4B00225A608B4B8F
:1047700000229A60894B0822DA60884B00221A6175
:10478000864B00225A61854B00229A61834B00229E
:10479000DA61824B00221A62814B41221A60804BFF
:1047A00000225A607E4B00229A607D4B0822DA601C
:1047B0007B4B00221A617A4B00225A61784B00220F
:1047C0009A61774B0022DA61754B00221A62754BB1
:1047D0004FF440721A60734B00225A60714B0022F2
:1047E0009A60704B0822DA606E4B00221A616D4BA2
:1047F00000225A616B4B00229A616A4B0022DA61F7
:10480000684B00221A62684B4FF441721A60664B83
:1048100000225A60644B00229A60634B0822DA60DF
:10482000614B00221A61604B00225A615E4B0022EC
:104830009A615D4B0022DA615B4B00221A625B4B8E
:1048400040F203321A60594B00225A60574B002243
:104850009A60564B0822DA60544B00221A61534B7F
:1048600000225A61514B00229A61504B0022DA61BA
:104870004E4B00221A624E4B40F201321A604C4BF2
:1048800000225A604A4B00229A60494B0822DA60A3
:10489000474B00221A61464B00225A61444B0022CA
:1048A0009A61434B0022DA61414B00221A62414B6C
:1048B00040F202321A603F4B00225A603D4B002208
:1048C0009A603C4B0822DA603A4B00221A61394B5D
:1048D00000225A61374B00229A61364B0022DA617E
:1048E000344B00221A62344B40F206321A60324BCB
:1048F00000225A60304B00229A602F4B0822DA6067
:104900002D4B00221A612C4B00225A612A4B0022A7
:104910009A61294B0022DA61274B00221A62274B49
:1049200040F207321A60254B00225A60234B0022C6
:104930009A60224B0822DA60204B00221A611F4B3A
:1049400000225A611D4B00229A611C4B0022DA6141
:104950001A4B00221A621A4B40F205321A60184BA9
:1049600000225A60164B00229A60154B0822DA602A
:10497000134B00221A61124B00225A61104B002285
:104980009A610F4B0022DA610D4B00221A6200BFC0
:10499000BD465DF8047B15E04C0E0024700E00242B
:1049A000940E0024B80E0024DC0E0024000F002416
:1049B000240F0024480F0024900F0024B40F00247B
:1049C0006C0F0024704700BF80B500AF4F4B1B68D1
:1049D00001334E4A13604E4B9B880A2B08D94D4B2E
:1049E00000225A704A4B00229A804A4B0122DA7305
:1049F000474B5B8A0A2B08D9464B00221A73444B5B
:104A000000225A82434B01225A73414BDB880A2B06
:104A100007D9404B00229A703D4B0022DA8001F00A
:104A20004FFB3B4B9B8A322B08D93A4B00229A72A0
:104A3000374B00229A82374B01221A76344BDB8A9D
:104A4000322B08D9334B0022DA72314B0022DA8242
:104A5000304B01225A762E4B5B890A2B08D92D4BFD
:104A600000225A712A4B00225A812A4B0122DA7401
:104A7000274B9B890A2B08D9264B00229A71244B7D
:104A800000229A81234B01221A75214BDB891A4699
:104A9000214B1B689A4208DD1E4B00221A721C4BE8
:104AA0000022DA811B4B01229A75194B1B8B142BA8
:104AB00008D9184B00229A76154B00221A83154B01
:104AC0000122DA76124B1B8A0A2B08D9114B0022DD
:104AD0005A720F4B00221A820E4B0122DA750C4BD0
:104AE0005B88022B08D90B4B00221A70084B00225E
:104AF0005A80084B01229A73084B1B78012B02D174
:104B0000064B00221A7000BF80BD00BF940B00242A
:104B1000AC0C0024C80C002400000024570C002416
:104B2000B0B582B000AF786039607D4B1B78002B48
:104B30005BD17C4B1B68642B51D17B4BDA687B4B80
:104B4000DB689A423BD1784B1A69784B1B699A42D1
:104B500035D1754B1A68754B1B689A422FD1724B31
:104B60009A68724B9B689A4229D16F4BDA696F4BF6
:104B7000DB699A4223D16C4B1A6A6C4B1B6A9A42CE
:104B80001DD1694B9A69694B9B699A4217D1664B53
:104B90005A6A664B5B6A9A4211D1634B9A6A634BBD
:104BA0009B6A9A420BD1604B5A69604B5B699A428F
:104BB00005D15D4BDA6A5D4BDB6A9A420FD0012169
:104BC0005A4800F0D9F9584A584B14461D460FCDA3
:104BD0000FC40FCD0FC495E80F0084E80F00514BB0
:104BE0001B6801334F4A136002E04E4B00221A60EB
:104BF0007B681B78012B06D13B685B8801339AB236
:104C00003B685A8002E03B6800225A807B68DB7870
:104C1000012B06D13B681B8901339AB23B681A818C
:104C200002E03B6800221A817B685B78012B06D189
:104C30003B689B8801339AB23B689A8002E03B68EC
:104C400000229A807B689B78012B06D13B68DB8829
:104C500001339AB23B68DA8002E03B680022DA80D6
:104C60007B681B79012B06D13B681B8801339AB204
:104C70003B681A8002E03B6800221A807B685B79FF
:104C8000012B06D13B685B8901339AB23B685A819C
:104C900002E03B6800225A817B689B79012B06D198
:104CA0003B689B8901339AB23B689A8102E03B687A
:104CB00000229A817B681B7A012B06D13B68DB8935
:104CC00001339AB23B68DA8102E03B680022DA8164
:104CD0007B68DB7A012B06D13B68DB8A01339AB211
:104CE0003B68DA8202E03B680022DA827B689B7ACA
:104CF000012B06D13B689B8A01339AB23B689A82AA
:104D000002E03B6800229A827B685B7A012B0FD11C
:104D10003B681B8A01339AB23B681A820BE000BFE2
:104D200078100024F00B002408100024D80F002471
:104D30003B6800221A82354B1B78012B12D1344B71
:104D40001B680133324A1360314B1B68042B0CDDA6
:104D50002E4B00221A702E4B00221A602D4B01227E
:104D60001A7002E02A4B00221A602B4B1B78012B91
:104D700005D12A4B1B680133284A136002E0274BF8
:104D800000221A60264B1B78012B05D1254B1B688E
:104D90000133244A136002E0224B00221A607B6830
:104DA0009B7E012B06D13B681B8B01339AB23B687B
:104DB0001A8302E03B6800221A831A4B1B68182BE7
:104DC00012DD184B00221A60174B1B780133DAB240
:104DD000154B1A70144B1B78092B05D9104B002268
:104DE0001A70114B00221A707B681B7B012B06D1B5
:104DF0003B685B8A01339AB23B685A8202E03B68A7
:104E000000225A8200BF0837BD46B0BD3A110024C7
:104E10003C11002440110024191100242011002409
:104E200024110024281100242711002480B485B007
:104E300000AFF860B9607A60FB681B78012B0DD178
:104E40004A4B1B78022B09D8494B01221A70474B59
:104E50001B780133DAB2454B1A7005E0FB6800227B
:104E60001A70424B00221A70FB685B78012B0DD13F
:104E70003E4B5B78022B09D83D4B01225A703B4BCD
:104E80005B780133DAB2394B5A7005E0FB680022D7
:104E90005A70364B00225A70FB689B78012B0DD15B
:104EA000324B9B78022B09D8314B01229A702F4B41
:104EB0009B780133DAB22D4B9A7008E0FB68002230
:104EC0009A702A4B00229A702A4B00221A60FB68C3
:104ED000DB79012B0DD1254BDB79022B09D8244B33
:104EE0000122DA71214BDB790133DAB21F4BDA711F
:104EF00005E0FB680022DA711C4B0022DA71FB68C6
:104F00001B7A012B0DD1194B1B7A022B09D8184B98
:104F100001221A72154B1B7A0133DAB2134B1A7243
:104F200005E0FB6800221A72104B00221A72FB681F
:104F30009B79012B0DD10D4B9B79022B09D80C4B82
:104F400001229A71094B9B790133DAB2074B9A71AE
:104F500006E0FB6800229A71044B00229A7100BFA0
:104F600000BF1437BD465DF8047B7047080C002471
:104F7000140C0024AC0B002480B582B000AF786024
:104F80000B46FB70FB78012B37D17B6801225A60FE
:104F90007B681A684FF062531A607B685A684A4B04
:104FA0001A607B689A68494B1A607B68DA68484BDC
:104FB0001A607B681A69474B1A607B685A69464BCE
:104FC0001A607B689A69454B1A607B68DA69444BC2
:104FD0001A607B681A6A434B1A60434B1A88434B2A
:104FE0001A60434B1A88434B1A607B68DA6A424B5B
:104FF0001A604248FDF7EAFE61E0334B1B681A462F
:105000007B685A607B685B68012B1DD07B6800223F
:105010009A607B680022DA607B6800221A617B68F4
:1050200000225A617B6800229A617B680022DA6163
:105030007B6844F620625A627B684CF250329A6276
:105040002F48FDF7C3FE3AE04FF062531B681A4643
:105050007B681A601D4B1B681A467B689A601C4B64
:105060001B681A467B68DA601A4B1B681A467B6815
:105070001A61194B1B681A467B685A61174B1B68EB
:105080001A467B689A61164B1B681A467B68DA6180
:10509000144B1B681A467B681A62144B1B681A462D
:1050A0007B685A62134B1B681A467B689A62124BE4
:1050B0001B681A467B68DA621248FDF787FE00BF5C
:1050C0000837BD4680BD00BF040080380800803826
:1050D0000C008038100080381400803818008038A8
:1050E0001C0080382000803880080024240080388C
:1050F00082080024280080382C0080389CD60108C3
:10510000BCD60108E0D6010880B483B000AF0346E6
:10511000FB71074AFB791370064B00221A60064B9D
:1051200000221A7000BF0C37BD465DF8047B704743
:105130003A1100243C1100244011002480B500AF36
:10514000294B00229A70294B01221A70284B012208
:105150001A70284B00221A60C82004F085FD264BE7
:1051600004221A80254B01221A70254B01221A7045
:10517000244B1B78012B0DD1234B06221A70234B95
:1051800001221A70224B00221A70224B1B68224AFD
:10519000136015E0214B1B6A002B04DC204B4FF4FD
:1051A00048721A6203E01C4B1B681B4A1360164BC3
:1051B00005221A70154B01221A70154B00221A7025
:1051C000144B1B68174A1360144B1B68144A136076
:1051D00000F0EEFF144B0D221A60134B6FF00C021F
:1051E0005A6000BF80BD00BFD010002419110024F8
:1051F0001A11002420110024FC0D00243911002470
:105200006D0B0024411100243811002424110024C6
:1052100027110024301100242C110024D80F002461
:105220000810002434110024A810002480B584B094
:1052300000AF0346B9607A60FB73B968234B83FB08
:105240000123DA10CB17D21A13469B0013449A009D
:105250001344CA1A002A35D10023FB73FB7B002BB1
:1052600011D1BA68194B83FB02131911D317CB1A4A
:10527000322101FB03F3D31A002B24D01021144850
:105280000CF037F91FE07B681B68002B0DDD7B6895
:105290001A68FB7B5B009A4207DA10210C480CF07D
:1052A00028F97B68043B7B600DE07B68043B7B60F6
:1052B0000122102106480CF003F9FB7B5A007B68A1
:1052C0001A6000E000BF1037BD4680BD1F85EB515E
:1052D0000010025880B483B000AF786039602F4B63
:1052E0001B78022B26D92D4B1B78042B22D83B6828
:1052F000D3ED027AB2EE0E7AF4EEC77AF1EE10FA3E
:1053000018DD3B681B8B1A46254B1B8803F6B83308
:105310009A420FDD234B1B681B8B1A46224B1B88BE
:10532000A3F6B8339A4205DA1C4B0E221A701F4BB3
:1053300001221A71194B1B78072B26D9174B1B78A2
:10534000082B22D83B68D3ED037AB2EE0E7AF4EE46
:10535000C77AF1EE10FA18DD3B681B8B1A46104B2A
:105360001B8803F6B8339A420FDD0E4B1B681B8B6C
:105370001A460D4B1B88A3F6B8339A4205DA074B41
:105380000F221A70094B0122DA70064B1B681B8B27
:1053900018460C37BD465DF8047B70477810002432
:1053A00080080024F40B002482080024FC0B002455
:1053B000F0B58BB006AF7860224B0022DA70224B3A
:1053C0000022DA70214B0022DA70214B1B68B3F502
:1053D000967F0BD01E4B1B68642B07D01C4B1B68A1
:1053E000C82B03D01B4B1B78012B02D1154B01227C
:1053F000DA70194E6D4606F110040FCC0FC5236804
:105400002B6096E80F0000F089F8F860134B9B685A
:10541000B3F5967F05DC114BDB6AFA68D31AB72B1C
:1054200003DD0F4B01229A7102E00D4B00229A71AD
:105430000C4B1B6801330B4A136000BF1437BD4689
:10544000F0BD00BF4C100024381000246010002470
:10545000B40B002442110024D0100024D80F0024E3
:10546000480C002474100024F0B58BB006AF3B1D2F
:1054700083E807007B79012B05D11E4B1B680133A4
:105480001C4A136002E01B4B00221A60194B1B6878
:1054900042F6E062934208D940F2951000F0E8F835
:1054A000144B00221A60012320E0124B1B68B3F555
:1054B000FA7F03D0104B1B68022B16DD0F4B002226
:1054C0009A600F4E6D4606F110040FCC0FC523688D
:1054D0002B6096E80F0000F021F80346074AD362DC
:1054E000054B00221A60022300E0002318461437FF
:1054F000BD46F0BDEC0B0024A80B0024D80F0024FF
:10550000D010002484B090B400AF07F1080484E800
:105510000F0000BFBD4690BC04B0704784B0B0B46B
:1055200095B000AF07F1600484E80F0000237B64AE
:105530000023FB644C4B3C1D1D460FCD0FC40FCD0B
:105540000FC40FCD0FC42B68236097F872303B64F3
:1055500097F87330FB6397F87430BB630123BB6427
:105560002AE0BB6C03F00303002B0CD1BA6C3F4B59
:1055700083FB02135911D317CB1A642101FB03F3E8
:10558000D31A002B12D1BB6C03F00303002B10D1F4
:10559000BA6C364B83FB0213D911D317CB1A4FF4D5
:1055A000C87101FB03F3D31A002B02D1FB6C01334A
:1055B000FB64BB6C0133BB64BA6C3B6C9A42D0DBBE
:1055C0003B6C03F00303002B0CD13A6C274B83FB9D
:1055D00002135911D317CB1A642101FB03F3D31A19
:1055E000002B12D13B6C03F00303002B23D13A6C48
:1055F0001E4B83FB0213D911D317CB1A4FF4C8717A
:1056000001FB03F3D31A002B15D10223BB640FE077
:10561000BB6C9B0050333B4453F84C3C5A1CBB6C56
:105620009B0050333B4443F84C2CBB6C0133BB64B0
:10563000BB6C0B2BECDD3B6C40F26D1203FB02F2FA
:10564000FB6C1A44FB6B9B0050333B4453F84C3CBF
:105650001344BA6B13447B647B6C18465437BD46C5
:10566000B0BC04B0704700BF10D701081F85EB51D4
:1056700080B483B000AF78607B68044A136000BFD9
:105680000C37BD465DF8047B704700BFB40B0024A7
:1056900080B400AF1F4B1B7A002B36D11E4B1B78FA
:1056A000002B09D11B4B1B78012B05D11B4B012271
:1056B0005A701B4B01229A721A4B5B79012B09D04D
:1056C000194B5B79012B05D1144B01225A70144BF5
:1056D00001229A72114B5B6842F6E062934205D850
:1056E000124B1B6840F2AA52934205D90C4B002280
:1056F0009A720A4B00225A70064B1A78064B1A709F
:10570000094B5A79074B5A7100E000BFBD465DF85E
:10571000047B7047300C00243C0C0024E40D002472
:10572000480C0024F4100024D0100024940B002412
:1057300090B486B000AF3C1D84E807003B600023B6
:10574000FB753B681B8B4EF66022934205D83B6885
:105750001B8B42F20F7293420CD83B6A1B78002BD2
:105760000BD10223FB753B6A01221A70254B0122E3
:105770009A7102E03B6A00221A70BB79012B01D1B9
:105780000123FB75204B1B79012B2DD11E4B1B7860
:10579000012B29D10323FB751C4B1B881A4641F6AC
:1057A0003F7313443A68128B934209DB3B6A5B7880
:1057B000002B05D13B6A01225A70124B01221A704C
:1057C000134B1B881A46134B13443A68128B9342AF
:1057D00011DC3B6A9B78002B0DD13B6A01229A7049
:1057E000084B01221A7006E03B6A00225A703B6A9D
:1057F00000229A7000E000BFFB7D18461837BD46B6
:1058000090BC7047FC0B0024300C0024800800245E
:1058100082080024C1E0FFFF80B500AF944B5B78A5
:10582000012B05D1924B5B680133914A536002E032
:105830008F4B00225A608F4B5B78012B05D18D4B2B
:105840005B6801338B4A536002E08A4B00225A6046
:10585000894B1B79002B02D1864B00225A70854B55
:105860005B68C82B0BD9834B00225A70012000F0D3
:10587000CFFB824B00221A708148FDF7A7FA814BBB
:105880005B78012B05D17F4B5B6801337D4A536008
:1058900002E07C4B00225A607A4B5B68642B05D98E
:1058A000784B00225A70784B01221A70774B5B7844
:1058B000012B05D1754B5B680133744A536002E0DC
:1058C000724B00225A606C4B1B78002B02D16F4B3D
:1058D00000225A706D4B5B68C82B0BD9032000F077
:1058E00097FB6B48FDF772FA644B11221A70674BF5
:1058F00000225A70674B5B78012B05D1654B5B68C2
:105900000133644A536002E0624B00225A60614BEB
:105910005B6843F6982293420FD9584B1B78032BB0
:1059200005D1022000F074FB5B48FDF74FFA534BA2
:1059300011221A70574B00225A70584B5B78012B7A
:1059400005D1564B5B680133544A536002E0534B18
:1059500000225A60514B5B6843F6982293420BD960
:10596000042000F055FB4E48FDF730FA434B11225E
:105970001A704A4B00225A704A4B5B78012B05D1B2
:10598000484B5B680133474A536002E0454B0022B5
:105990005A60444B5B68B3F5FA7F05D9052000F0E7
:1059A00037FB364B11221A703F4B5B78012B05D128
:1059B0003D4B5B6801333C4A536002E03A4B0022A6
:1059C0005A60394B5B6840F6B832934205D90620DD
:1059D00000F01EFB294B11221A70344B5B78012B0F
:1059E00005D1324B5B680133304A536002E02F4BE4
:1059F00000225A602E4B5B78012B05D12C4B5B6843
:105A000001332B4A536002E0294B00225A60294B94
:105A10005B78012B05D1274B5B680133254A536026
:105A200002E0244B00225A60234B5B78012B05D106
:105A3000214B5B680133204A536002E01E4B002279
:105A40005A601E4B5B78012B05D11C4B5B68013300
:105A50001A4A536002E0194B00225A60184B5B78D7
:105A6000012B2FD1164B5B680133154A53602CE094
:105A70001C0D0024E40C0024300C002478100024B9
:105A800044D701082C0D002479100024EC0C0024CC
:105A90006CD70108F40C002494D70108FC0C0024F6
:105AA000C0D70108040D00240C0D0024140D00249F
:105AB000340D00243C0D0024440D00246C0D002402
:105AC0004C0D00248A4B00225A608A4B5B78012BD4
:105AD00005D1884B5B680133864A536002E0854BF1
